{"abi":[{"inputs":[{"internalType":"address","name":"_rewardTokenAddress","type":"address"}],"stateMutability":"nonpayable","type":"constructor","name":"constructor"},{"anonymous":false,"inputs":[{"indexed":true,"internalType":"address","name":"previousOwner","type":"address"},{"indexed":true,"internalType":"address","name":"newOwner","type":"address"}],"name":"OwnershipTransferred","type":"event"},{"inputs":[{"internalType":"address","name":"_token","type":"address"}],"name":"addAllowedTokens","outputs":[],"stateMutability":"nonpayable","type":"function"},{"inputs":[{"internalType":"uint256","name":"","type":"uint256"}],"name":"allowedTokens","outputs":[{"internalType":"address","name":"","type":"address"}],"stateMutability":"view","type":"function"},{"inputs":[{"internalType":"address","name":"_user","type":"address"},{"internalType":"address","name":"_token","type":"address"}],"name":"getStakedUsdValue","outputs":[{"internalType":"uint256","name":"","type":"uint256"}],"stateMutability":"view","type":"function"},{"inputs":[{"internalType":"address","name":"_token","type":"address"}],"name":"getTokenUsdPrice","outputs":[{"internalType":"uint256","name":"","type":"uint256"},{"internalType":"uint256","name":"","type":"uint256"}],"stateMutability":"view","type":"function"},{"inputs":[{"internalType":"address","name":"_user","type":"address"}],"name":"getTotalUsdStakedValue","outputs":[{"internalType":"uint256","name":"","type":"uint256"}],"stateMutability":"view","type":"function"},{"inputs":[],"name":"issueTokens","outputs":[],"stateMutability":"nonpayable","type":"function"},{"inputs":[],"name":"numberOfStakers","outputs":[{"internalType":"uint256","name":"","type":"uint256"}],"stateMutability":"view","type":"function"},{"inputs":[],"name":"owner","outputs":[{"internalType":"address","name":"","type":"address"}],"stateMutability":"view","type":"function"},{"inputs":[],"name":"renounceOwnership","outputs":[],"stateMutability":"nonpayable","type":"function"},{"inputs":[],"name":"rewardToken","outputs":[{"internalType":"contract IERC20","name":"","type":"address"}],"stateMutability":"view","type":"function"},{"inputs":[{"internalType":"address","name":"_token","type":"address"},{"internalType":"address","name":"_priceFeed","type":"address"}],"name":"setPriceFeedAddress","outputs":[],"stateMutability":"nonpayable","type":"function"},{"inputs":[{"internalType":"uint256","name":"_amount","type":"uint256"},{"internalType":"address","name":"_token","type":"address"}],"name":"stakeTokens","outputs":[],"stateMutability":"nonpayable","type":"function"},{"inputs":[{"internalType":"uint256","name":"","type":"uint256"}],"name":"stakers","outputs":[{"internalType":"address","name":"","type":"address"}],"stateMutability":"view","type":"function"},{"inputs":[{"internalType":"address","name":"","type":"address"},{"internalType":"address","name":"","type":"address"}],"name":"stakingBalance","outputs":[{"internalType":"uint256","name":"","type":"uint256"}],"stateMutability":"view","type":"function"},{"inputs":[{"internalType":"address","name":"_token","type":"address"}],"name":"tokenIsAllowed","outputs":[{"internalType":"bool","name":"","type":"bool"}],"stateMutability":"view","type":"function"},{"inputs":[{"internalType":"address","name":"","type":"address"}],"name":"tokenPriceFeedMapping","outputs":[{"internalType":"address","name":"","type":"address"}],"stateMutability":"view","type":"function"},{"inputs":[{"internalType":"address","name":"newOwner","type":"address"}],"name":"transferOwnership","outputs":[],"stateMutability":"nonpayable","type":"function"},{"inputs":[{"internalType":"address","name":"","type":"address"}],"name":"uniqueTokensStaked","outputs":[{"internalType":"uint256","name":"","type":"uint256"}],"stateMutability":"view","type":"function"},{"inputs":[{"internalType":"address","name":"_token","type":"address"}],"name":"unstakeTokens","outputs":[],"stateMutability":"nonpayable","type":"function"}],"bytecode":"608060405234801561001057600080fd5b5060405161116d38038061116d83398101604081905261002f916100ad565b6100383361005d565b600680546001600160a01b0319166001600160a01b03929092169190911790556100dd565b600080546001600160a01b038381166001600160a01b0319831681178455604051919092169283917f8be0079c531659141344cd1fd0a4f28419497f9722a3daafe3b4186f6b6457e09190a35050565b6000602082840312156100bf57600080fd5b81516001600160a01b03811681146100d657600080fd5b9392505050565b611081806100ec6000396000f3fe608060405234801561001057600080fd5b50600436106101205760003560e01c806360ab5852116100ad578063bc2f83d611610071578063bc2f83d614610289578063dd5b84671461029c578063f2fde38b146102bf578063f7c618c1146102d2578063fd5e6dd1146102e557600080fd5b806360ab585214610235578063715018a61461023d5780638da5cb5b14610245578063a1fdc0fd14610256578063b83e02341461026957600080fd5b806329161a00116100f457806329161a00146101bb5780632d1ad8b8146101f457806359017c52146102075780635e5f2e261461021a5780635eabf5771461022d57600080fd5b8062593bcf146101255780630bea440d14610152578063171e44ea1461016757806327927b3e1461017a575b600080fd5b610138610133366004610d19565b6102f8565b604080519283526020830191909152015b60405180910390f35b610165610160366004610d3b565b6103f9565b005b610165610175366004610d19565b6105d8565b6101a3610188366004610d19565b6005602052600090815260409020546001600160a01b031681565b6040516001600160a01b039091168152602001610149565b6101e66101c9366004610d67565b600460209081526000928352604080842090915290825290205481565b604051908152602001610149565b610165610202366004610d19565b610653565b6101e6610215366004610d67565b610792565b6101a3610228366004610d91565b6107f5565b6002546101e6565b61016561081f565b610165610923565b6000546001600160a01b03166101a3565b610165610264366004610d67565b610959565b6101e6610277366004610d19565b60036020526000908152604090205481565b6101e6610297366004610d19565b6109b1565b6102af6102aa366004610d19565b610a3a565b6040519015158152602001610149565b6101656102cd366004610d19565b610aa4565b6006546101a3906001600160a01b031681565b6101a36102f3366004610d91565b610b3c565b6001600160a01b03808216600090815260056020526040808220548151633fabe5a360e21b815291519293849391169182918491839163feaf968c9160048082019260a0929091908290030181865afa158015610359573d6000803e3d6000fd5b505050506040513d601f19601f8201168201806040525081019061037d9190610dc4565b5050509150506000826001600160a01b031663313ce5676040518163ffffffff1660e01b8152600401602060405180830381865afa1580156103c3573d6000803e3d6000fd5b505050506040513d601f19601f820116820180604052508101906103e79190610e14565b919760ff909216965090945050505050565b6000821161044e5760405162461bcd60e51b815260206004820152601e60248201527f416d6f756e74206d757374206265206d6f7265207468616e207a65726f2e000060448201526064015b60405180910390fd5b61045781610a3a565b6104a35760405162461bcd60e51b815260206004820152601f60248201527f546f6b656e206973206e6f742063757272656e746c7920616c6c6f7765642e006044820152606401610445565b6040516323b872dd60e01b8152336004820152306024820152604481018390526001600160a01b038216906323b872dd906064016020604051808303816000875af11580156104f6573d6000803e3d6000fd5b505050506040513d601f19601f8201168201806040525081019061051a9190610e37565b5033600081815260036020526040902054906105369083610b4c565b6001600160a01b038216600090815260046020908152604080832033845290915281208054859290610569908490610e6f565b90915550508015801561058b5750336000908152600360205260409020546001145b156105d357600280546001810182556000919091527f405787fa12a823e0f2b7631cc41b3ba8828b3321ca811111fa75cd3aa3bb5ace0180546001600160a01b031916331790555b505050565b6000546001600160a01b031633146106025760405162461bcd60e51b815260040161044590610e87565b6001805480820182556000919091527fb10e2d527612073b26eecdfd717e6a320cf44b4afac2b0732d9fcbe2b7fa0cf60180546001600160a01b0319166001600160a01b0392909216919091179055565b6001600160a01b0381166000908152600460209081526040808320338452909152902054806106bc5760405162461bcd60e51b81526020600482015260156024820152744e6f20746f6b656e7320746f20756e7374616b652160581b6044820152606401610445565b60405163a9059cbb60e01b8152336004820152602481018290526001600160a01b0383169063a9059cbb906044016020604051808303816000875af1158015610709573d6000803e3d6000fd5b505050506040513d601f19601f8201168201806040525081019061072d9190610e37565b506001600160a01b038216600090815260046020908152604080832033845282528083208390556003909152812080546001929061076c908490610ebc565b90915550503360009081526003602052604090205461078e5761078e33610ba8565b5050565b6001600160a01b03808216600090815260046020908152604080832093861683529290529081205481806107c5856102f8565b90925090506107d581600a610fb7565b6107df8385610fc3565b6107e99190610fe2565b93505050505b92915050565b6001818154811061080557600080fd5b6000918252602090912001546001600160a01b0316905081565b6000546001600160a01b031633146108495760405162461bcd60e51b815260040161044590610e87565b60005b6002548110156109205760006002828154811061086b5761086b611004565b60009182526020822001546001600160a01b0316915061088a826109b1565b9050801561090b5760065460405163a9059cbb60e01b81526001600160a01b038481166004830152602482018490529091169063a9059cbb906044016020604051808303816000875af11580156108e5573d6000803e3d6000fd5b505050506040513d601f19601f820116820180604052508101906109099190610e37565b505b505080806109189061101a565b91505061084c565b50565b6000546001600160a01b0316331461094d5760405162461bcd60e51b815260040161044590610e87565b6109576000610cad565b565b6000546001600160a01b031633146109835760405162461bcd60e51b815260040161044590610e87565b6001600160a01b03918216600090815260056020526040902080546001600160a01b03191691909216179055565b6001600160a01b0381166000908152600360205260408120546109d657506000919050565b6000805b600154811015610a3357610a1584600183815481106109fb576109fb611004565b6000918252602090912001546001600160a01b0316610792565b610a1f9083610e6f565b915080610a2b8161101a565b9150506109da565b5092915050565b6000805b600154811015610a9b57826001600160a01b031660018281548110610a6557610a65611004565b6000918252602090912001546001600160a01b03161415610a895750600192915050565b80610a938161101a565b915050610a3e565b50600092915050565b6000546001600160a01b03163314610ace5760405162461bcd60e51b815260040161044590610e87565b6001600160a01b038116610b335760405162461bcd60e51b815260206004820152602660248201527f4f776e61626c653a206e6577206f776e657220697320746865207a65726f206160448201526564647265737360d01b6064820152608401610445565b61092081610cad565b6002818154811061080557600080fd5b6001600160a01b0380821660009081526004602090815260408083209386168352929052205461078e576001600160a01b0382166000908152600360205260408120805460019290610b9f908490610e6f565b90915550505050565b60005b60025481101561078e57816001600160a01b031660028281548110610bd257610bd2611004565b6000918252602090912001546001600160a01b03161415610c9b5760028054610bfd90600190610ebc565b81548110610c0d57610c0d611004565b600091825260209091200154600280546001600160a01b039092169183908110610c3957610c39611004565b9060005260206000200160006101000a8154816001600160a01b0302191690836001600160a01b031602179055506002805480610c7857610c78611035565b600082815260209020810160001990810180546001600160a01b03191690550190555b80610ca58161101a565b915050610bab565b600080546001600160a01b038381166001600160a01b0319831681178455604051919092169283917f8be0079c531659141344cd1fd0a4f28419497f9722a3daafe3b4186f6b6457e09190a35050565b80356001600160a01b0381168114610d1457600080fd5b919050565b600060208284031215610d2b57600080fd5b610d3482610cfd565b9392505050565b60008060408385031215610d4e57600080fd5b82359150610d5e60208401610cfd565b90509250929050565b60008060408385031215610d7a57600080fd5b610d8383610cfd565b9150610d5e60208401610cfd565b600060208284031215610da357600080fd5b5035919050565b805169ffffffffffffffffffff81168114610d1457600080fd5b600080600080600060a08688031215610ddc57600080fd5b610de586610daa565b9450602086015193506040860151925060608601519150610e0860808701610daa565b90509295509295909350565b600060208284031215610e2657600080fd5b815160ff81168114610d3457600080fd5b600060208284031215610e4957600080fd5b81518015158114610d3457600080fd5b634e487b7160e01b600052601160045260246000fd5b60008219821115610e8257610e82610e59565b500190565b6020808252818101527f4f776e61626c653a2063616c6c6572206973206e6f7420746865206f776e6572604082015260600190565b600082821015610ece57610ece610e59565b500390565b600181815b80851115610f0e578160001904821115610ef457610ef4610e59565b80851615610f0157918102915b93841c9390800290610ed8565b509250929050565b600082610f25575060016107ef565b81610f32575060006107ef565b8160018114610f485760028114610f5257610f6e565b60019150506107ef565b60ff841115610f6357610f63610e59565b50506001821b6107ef565b5060208310610133831016604e8410600b8410161715610f91575081810a6107ef565b610f9b8383610ed3565b8060001904821115610faf57610faf610e59565b029392505050565b6000610d348383610f16565b6000816000190483118215151615610fdd57610fdd610e59565b500290565b600082610fff57634e487b7160e01b600052601260045260246000fd5b500490565b634e487b7160e01b600052603260045260246000fd5b600060001982141561102e5761102e610e59565b5060010190565b634e487b7160e01b600052603160045260246000fdfea2646970667358221220f7114c37768fcebecc73ab6a2a24cbc2938626fd886a2265e4eede24a4bf1e0664736f6c634300080c0033","bytecodeSha1":"0ecd1ed9fe885ffdad2838c437526b31ffc2fa81","compiler":{"evm_version":"istanbul","optimizer":{"enabled":true,"runs":200},"version":"0.8.12+commit.f00d7308"},"contractName":"TokenFarm","language":"Solidity","natspec":{"kind":"dev","methods":{"owner()":{"details":"Returns the address of the current owner."},"renounceOwnership()":{"details":"Leaves the contract without owner. It will not be possible to call `onlyOwner` functions anymore. Can only be called by the current owner. NOTE: Renouncing ownership will leave the contract without an owner, thereby removing any functionality that is only available to the owner."},"transferOwnership(address)":{"details":"Transfers ownership of the contract to a new account (`newOwner`). Can only be called by the current owner."}},"version":1},"opcodes":"PUSH1 0x80 PUSH1 0x40 MSTORE CALLVALUE DUP1 ISZERO PUSH2 0x10 JUMPI PUSH1 0x0 DUP1 REVERT JUMPDEST POP PUSH1 0x4 CALLDATASIZE LT PUSH2 0x120 JUMPI PUSH1 0x0 CALLDATALOAD PUSH1 0xE0 SHR DUP1 PUSH4 0x60AB5852 GT PUSH2 0xAD JUMPI DUP1 PUSH4 0xBC2F83D6 GT PUSH2 0x71 JUMPI DUP1 PUSH4 0xBC2F83D6 EQ PUSH2 0x289 JUMPI DUP1 PUSH4 0xDD5B8467 EQ PUSH2 0x29C JUMPI DUP1 PUSH4 0xF2FDE38B EQ PUSH2 0x2BF JUMPI DUP1 PUSH4 0xF7C618C1 EQ PUSH2 0x2D2 JUMPI DUP1 PUSH4 0xFD5E6DD1 EQ PUSH2 0x2E5 JUMPI PUSH1 0x0 DUP1 REVERT JUMPDEST DUP1 PUSH4 0x60AB5852 EQ PUSH2 0x235 JUMPI DUP1 PUSH4 0x715018A6 EQ PUSH2 0x23D JUMPI DUP1 PUSH4 0x8DA5CB5B EQ PUSH2 0x245 JUMPI DUP1 PUSH4 0xA1FDC0FD EQ PUSH2 0x256 JUMPI DUP1 PUSH4 0xB83E0234 EQ PUSH2 0x269 JUMPI PUSH1 0x0 DUP1 REVERT JUMPDEST DUP1 PUSH4 0x29161A00 GT PUSH2 0xF4 JUMPI DUP1 PUSH4 0x29161A00 EQ PUSH2 0x1BB JUMPI DUP1 PUSH4 0x2D1AD8B8 EQ PUSH2 0x1F4 JUMPI DUP1 PUSH4 0x59017C52 EQ PUSH2 0x207 JUMPI DUP1 PUSH4 0x5E5F2E26 EQ PUSH2 0x21A JUMPI DUP1 PUSH4 0x5EABF577 EQ PUSH2 0x22D JUMPI PUSH1 0x0 DUP1 REVERT JUMPDEST DUP1 PUSH3 0x593BCF EQ PUSH2 0x125 JUMPI DUP1 PUSH4 0xBEA440D EQ PUSH2 0x152 JUMPI DUP1 PUSH4 0x171E44EA EQ PUSH2 0x167 JUMPI DUP1 PUSH4 0x27927B3E EQ PUSH2 0x17A JUMPI JUMPDEST PUSH1 0x0 DUP1 REVERT JUMPDEST PUSH2 0x138 PUSH2 0x133 CALLDATASIZE PUSH1 0x4 PUSH2 0xD19 JUMP JUMPDEST PUSH2 0x2F8 JUMP JUMPDEST PUSH1 0x40 DUP1 MLOAD SWAP3 DUP4 MSTORE PUSH1 0x20 DUP4 ADD SWAP2 SWAP1 SWAP2 MSTORE ADD JUMPDEST PUSH1 0x40 MLOAD DUP1 SWAP2 SUB SWAP1 RETURN JUMPDEST PUSH2 0x165 PUSH2 0x160 CALLDATASIZE PUSH1 0x4 PUSH2 0xD3B JUMP JUMPDEST PUSH2 0x3F9 JUMP JUMPDEST STOP JUMPDEST PUSH2 0x165 PUSH2 0x175 CALLDATASIZE PUSH1 0x4 PUSH2 0xD19 JUMP JUMPDEST PUSH2 0x5D8 JUMP JUMPDEST PUSH2 0x1A3 PUSH2 0x188 CALLDATASIZE PUSH1 0x4 PUSH2 0xD19 JUMP JUMPDEST PUSH1 0x5 PUSH1 0x20 MSTORE PUSH1 0x0 SWAP1 DUP2 MSTORE PUSH1 0x40 SWAP1 KECCAK256 SLOAD PUSH1 0x1 PUSH1 0x1 PUSH1 0xA0 SHL SUB AND DUP2 JUMP JUMPDEST PUSH1 0x40 MLOAD PUSH1 0x1 PUSH1 0x1 PUSH1 0xA0 SHL SUB SWAP1 SWAP2 AND DUP2 MSTORE PUSH1 0x20 ADD PUSH2 0x149 JUMP JUMPDEST PUSH2 0x1E6 PUSH2 0x1C9 CALLDATASIZE PUSH1 0x4 PUSH2 0xD67 JUMP JUMPDEST PUSH1 0x4 PUSH1 0x20 SWAP1 DUP2 MSTORE PUSH1 0x0 SWAP3 DUP4 MSTORE PUSH1 0x40 DUP1 DUP5 KECCAK256 SWAP1 SWAP2 MSTORE SWAP1 DUP3 MSTORE SWAP1 KECCAK256 SLOAD DUP2 JUMP JUMPDEST PUSH1 0x40 MLOAD SWAP1 DUP2 MSTORE PUSH1 0x20 ADD PUSH2 0x149 JUMP JUMPDEST PUSH2 0x165 PUSH2 0x202 CALLDATASIZE PUSH1 0x4 PUSH2 0xD19 JUMP JUMPDEST PUSH2 0x653 JUMP JUMPDEST PUSH2 0x1E6 PUSH2 0x215 CALLDATASIZE PUSH1 0x4 PUSH2 0xD67 JUMP JUMPDEST PUSH2 0x792 JUMP JUMPDEST PUSH2 0x1A3 PUSH2 0x228 CALLDATASIZE PUSH1 0x4 PUSH2 0xD91 JUMP JUMPDEST PUSH2 0x7F5 JUMP JUMPDEST PUSH1 0x2 SLOAD PUSH2 0x1E6 JUMP JUMPDEST PUSH2 0x165 PUSH2 0x81F JUMP JUMPDEST PUSH2 0x165 PUSH2 0x923 JUMP JUMPDEST PUSH1 0x0 SLOAD PUSH1 0x1 PUSH1 0x1 PUSH1 0xA0 SHL SUB AND PUSH2 0x1A3 JUMP JUMPDEST PUSH2 0x165 PUSH2 0x264 CALLDATASIZE PUSH1 0x4 PUSH2 0xD67 JUMP JUMPDEST PUSH2 0x959 JUMP JUMPDEST PUSH2 0x1E6 PUSH2 0x277 CALLDATASIZE PUSH1 0x4 PUSH2 0xD19 JUMP JUMPDEST PUSH1 0x3 PUSH1 0x20 MSTORE PUSH1 0x0 SWAP1 DUP2 MSTORE PUSH1 0x40 SWAP1 KECCAK256 SLOAD DUP2 JUMP JUMPDEST PUSH2 0x1E6 PUSH2 0x297 CALLDATASIZE PUSH1 0x4 PUSH2 0xD19 JUMP JUMPDEST PUSH2 0x9B1 JUMP JUMPDEST PUSH2 0x2AF PUSH2 0x2AA CALLDATASIZE PUSH1 0x4 PUSH2 0xD19 JUMP JUMPDEST PUSH2 0xA3A JUMP JUMPDEST PUSH1 0x40 MLOAD SWAP1 ISZERO ISZERO DUP2 MSTORE PUSH1 0x20 ADD PUSH2 0x149 JUMP JUMPDEST PUSH2 0x165 PUSH2 0x2CD CALLDATASIZE PUSH1 0x4 PUSH2 0xD19 JUMP JUMPDEST PUSH2 0xAA4 JUMP JUMPDEST PUSH1 0x6 SLOAD PUSH2 0x1A3 SWAP1 PUSH1 0x1 PUSH1 0x1 PUSH1 0xA0 SHL SUB AND DUP2 JUMP JUMPDEST PUSH2 0x1A3 PUSH2 0x2F3 CALLDATASIZE PUSH1 0x4 PUSH2 0xD91 JUMP JUMPDEST PUSH2 0xB3C JUMP JUMPDEST PUSH1 0x1 PUSH1 0x1 PUSH1 0xA0 SHL SUB DUP1 DUP3 AND PUSH1 0x0 SWAP1 DUP2 MSTORE PUSH1 0x5 PUSH1 0x20 MSTORE PUSH1 0x40 DUP1 DUP3 KECCAK256 SLOAD DUP2 MLOAD PUSH4 0x3FABE5A3 PUSH1 0xE2 SHL DUP2 MSTORE SWAP2 MLOAD SWAP3 SWAP4 DUP5 SWAP4 SWAP2 AND SWAP2 DUP3 SWAP2 DUP5 SWAP2 DUP4 SWAP2 PUSH4 0xFEAF968C SWAP2 PUSH1 0x4 DUP1 DUP3 ADD SWAP3 PUSH1 0xA0 SWAP3 SWAP1 SWAP2 SWAP1 DUP3 SWAP1 SUB ADD DUP2 DUP7 GAS STATICCALL ISZERO DUP1 ISZERO PUSH2 0x359 JUMPI RETURNDATASIZE PUSH1 0x0 DUP1 RETURNDATACOPY RETURNDATASIZE PUSH1 0x0 REVERT JUMPDEST POP POP POP POP PUSH1 0x40 MLOAD RETURNDATASIZE PUSH1 0x1F NOT PUSH1 0x1F DUP3 ADD AND DUP3 ADD DUP1 PUSH1 0x40 MSTORE POP DUP2 ADD SWAP1 PUSH2 0x37D SWAP2 SWAP1 PUSH2 0xDC4 JUMP JUMPDEST POP POP POP SWAP2 POP POP PUSH1 0x0 DUP3 PUSH1 0x1 PUSH1 0x1 PUSH1 0xA0 SHL SUB AND PUSH4 0x313CE567 PUSH1 0x40 MLOAD DUP2 PUSH4 0xFFFFFFFF AND PUSH1 0xE0 SHL DUP2 MSTORE PUSH1 0x4 ADD PUSH1 0x20 PUSH1 0x40 MLOAD DUP1 DUP4 SUB DUP2 DUP7 GAS STATICCALL ISZERO DUP1 ISZERO PUSH2 0x3C3 JUMPI RETURNDATASIZE PUSH1 0x0 DUP1 RETURNDATACOPY RETURNDATASIZE PUSH1 0x0 REVERT JUMPDEST POP POP POP POP PUSH1 0x40 MLOAD RETURNDATASIZE PUSH1 0x1F NOT PUSH1 0x1F DUP3 ADD AND DUP3 ADD DUP1 PUSH1 0x40 MSTORE POP DUP2 ADD SWAP1 PUSH2 0x3E7 SWAP2 SWAP1 PUSH2 0xE14 JUMP JUMPDEST SWAP2 SWAP8 PUSH1 0xFF SWAP1 SWAP3 AND SWAP7 POP SWAP1 SWAP5 POP POP POP POP POP JUMP JUMPDEST PUSH1 0x0 DUP3 GT PUSH2 0x44E JUMPI PUSH1 0x40 MLOAD PUSH3 0x461BCD PUSH1 0xE5 SHL DUP2 MSTORE PUSH1 0x20 PUSH1 0x4 DUP3 ADD MSTORE PUSH1 0x1E PUSH1 0x24 DUP3 ADD MSTORE PUSH32 0x416D6F756E74206D757374206265206D6F7265207468616E207A65726F2E0000 PUSH1 0x44 DUP3 ADD MSTORE PUSH1 0x64 ADD JUMPDEST PUSH1 0x40 MLOAD DUP1 SWAP2 SUB SWAP1 REVERT JUMPDEST PUSH2 0x457 DUP2 PUSH2 0xA3A JUMP JUMPDEST PUSH2 0x4A3 JUMPI PUSH1 0x40 MLOAD PUSH3 0x461BCD PUSH1 0xE5 SHL DUP2 MSTORE PUSH1 0x20 PUSH1 0x4 DUP3 ADD MSTORE PUSH1 0x1F PUSH1 0x24 DUP3 ADD MSTORE PUSH32 0x546F6B656E206973206E6F742063757272656E746C7920616C6C6F7765642E00 PUSH1 0x44 DUP3 ADD MSTORE PUSH1 0x64 ADD PUSH2 0x445 JUMP JUMPDEST PUSH1 0x40 MLOAD PUSH4 0x23B872DD PUSH1 0xE0 SHL DUP2 MSTORE CALLER PUSH1 0x4 DUP3 ADD MSTORE ADDRESS PUSH1 0x24 DUP3 ADD MSTORE PUSH1 0x44 DUP2 ADD DUP4 SWAP1 MSTORE PUSH1 0x1 PUSH1 0x1 PUSH1 0xA0 SHL SUB DUP3 AND SWAP1 PUSH4 0x23B872DD SWAP1 PUSH1 0x64 ADD PUSH1 0x20 PUSH1 0x40 MLOAD DUP1 DUP4 SUB DUP2 PUSH1 0x0 DUP8 GAS CALL ISZERO DUP1 ISZERO PUSH2 0x4F6 JUMPI RETURNDATASIZE PUSH1 0x0 DUP1 RETURNDATACOPY RETURNDATASIZE PUSH1 0x0 REVERT JUMPDEST POP POP POP POP PUSH1 0x40 MLOAD RETURNDATASIZE PUSH1 0x1F NOT PUSH1 0x1F DUP3 ADD AND DUP3 ADD DUP1 PUSH1 0x40 MSTORE POP DUP2 ADD SWAP1 PUSH2 0x51A SWAP2 SWAP1 PUSH2 0xE37 JUMP JUMPDEST POP CALLER PUSH1 0x0 DUP2 DUP2 MSTORE PUSH1 0x3 PUSH1 0x20 MSTORE PUSH1 0x40 SWAP1 KECCAK256 SLOAD SWAP1 PUSH2 0x536 SWAP1 DUP4 PUSH2 0xB4C JUMP JUMPDEST PUSH1 0x1 PUSH1 0x1 PUSH1 0xA0 SHL SUB DUP3 AND PUSH1 0x0 SWAP1 DUP2 MSTORE PUSH1 0x4 PUSH1 0x20 SWAP1 DUP2 MSTORE PUSH1 0x40 DUP1 DUP4 KECCAK256 CALLER DUP5 MSTORE SWAP1 SWAP2 MSTORE DUP2 KECCAK256 DUP1 SLOAD DUP6 SWAP3 SWAP1 PUSH2 0x569 SWAP1 DUP5 SWAP1 PUSH2 0xE6F JUMP JUMPDEST SWAP1 SWAP2 SSTORE POP POP DUP1 ISZERO DUP1 ISZERO PUSH2 0x58B JUMPI POP CALLER PUSH1 0x0 SWAP1 DUP2 MSTORE PUSH1 0x3 PUSH1 0x20 MSTORE PUSH1 0x40 SWAP1 KECCAK256 SLOAD PUSH1 0x1 EQ JUMPDEST ISZERO PUSH2 0x5D3 JUMPI PUSH1 0x2 DUP1 SLOAD PUSH1 0x1 DUP2 ADD DUP3 SSTORE PUSH1 0x0 SWAP2 SWAP1 SWAP2 MSTORE PUSH32 0x405787FA12A823E0F2B7631CC41B3BA8828B3321CA811111FA75CD3AA3BB5ACE ADD DUP1 SLOAD PUSH1 0x1 PUSH1 0x1 PUSH1 0xA0 SHL SUB NOT AND CALLER OR SWAP1 SSTORE JUMPDEST POP POP POP JUMP JUMPDEST PUSH1 0x0 SLOAD PUSH1 0x1 PUSH1 0x1 PUSH1 0xA0 SHL SUB AND CALLER EQ PUSH2 0x602 JUMPI PUSH1 0x40 MLOAD PUSH3 0x461BCD PUSH1 0xE5 SHL DUP2 MSTORE PUSH1 0x4 ADD PUSH2 0x445 SWAP1 PUSH2 0xE87 JUMP JUMPDEST PUSH1 0x1 DUP1 SLOAD DUP1 DUP3 ADD DUP3 SSTORE PUSH1 0x0 SWAP2 SWAP1 SWAP2 MSTORE PUSH32 0xB10E2D527612073B26EECDFD717E6A320CF44B4AFAC2B0732D9FCBE2B7FA0CF6 ADD DUP1 SLOAD PUSH1 0x1 PUSH1 0x1 PUSH1 0xA0 SHL SUB NOT AND PUSH1 0x1 PUSH1 0x1 PUSH1 0xA0 SHL SUB SWAP3 SWAP1 SWAP3 AND SWAP2 SWAP1 SWAP2 OR SWAP1 SSTORE JUMP JUMPDEST PUSH1 0x1 PUSH1 0x1 PUSH1 0xA0 SHL SUB DUP2 AND PUSH1 0x0 SWAP1 DUP2 MSTORE PUSH1 0x4 PUSH1 0x20 SWAP1 DUP2 MSTORE PUSH1 0x40 DUP1 DUP4 KECCAK256 CALLER DUP5 MSTORE SWAP1 SWAP2 MSTORE SWAP1 KECCAK256 SLOAD DUP1 PUSH2 0x6BC JUMPI PUSH1 0x40 MLOAD PUSH3 0x461BCD PUSH1 0xE5 SHL DUP2 MSTORE PUSH1 0x20 PUSH1 0x4 DUP3 ADD MSTORE PUSH1 0x15 PUSH1 0x24 DUP3 ADD MSTORE PUSH21 0x4E6F20746F6B656E7320746F20756E7374616B6521 PUSH1 0x58 SHL PUSH1 0x44 DUP3 ADD MSTORE PUSH1 0x64 ADD PUSH2 0x445 JUMP JUMPDEST PUSH1 0x40 MLOAD PUSH4 0xA9059CBB PUSH1 0xE0 SHL DUP2 MSTORE CALLER PUSH1 0x4 DUP3 ADD MSTORE PUSH1 0x24 DUP2 ADD DUP3 SWAP1 MSTORE PUSH1 0x1 PUSH1 0x1 PUSH1 0xA0 SHL SUB DUP4 AND SWAP1 PUSH4 0xA9059CBB SWAP1 PUSH1 0x44 ADD PUSH1 0x20 PUSH1 0x40 MLOAD DUP1 DUP4 SUB DUP2 PUSH1 0x0 DUP8 GAS CALL ISZERO DUP1 ISZERO PUSH2 0x709 JUMPI RETURNDATASIZE PUSH1 0x0 DUP1 RETURNDATACOPY RETURNDATASIZE PUSH1 0x0 REVERT JUMPDEST POP POP POP POP PUSH1 0x40 MLOAD RETURNDATASIZE PUSH1 0x1F NOT PUSH1 0x1F DUP3 ADD AND DUP3 ADD DUP1 PUSH1 0x40 MSTORE POP DUP2 ADD SWAP1 PUSH2 0x72D SWAP2 SWAP1 PUSH2 0xE37 JUMP JUMPDEST POP PUSH1 0x1 PUSH1 0x1 PUSH1 0xA0 SHL SUB DUP3 AND PUSH1 0x0 SWAP1 DUP2 MSTORE PUSH1 0x4 PUSH1 0x20 SWAP1 DUP2 MSTORE PUSH1 0x40 DUP1 DUP4 KECCAK256 CALLER DUP5 MSTORE DUP3 MSTORE DUP1 DUP4 KECCAK256 DUP4 SWAP1 SSTORE PUSH1 0x3 SWAP1 SWAP2 MSTORE DUP2 KECCAK256 DUP1 SLOAD PUSH1 0x1 SWAP3 SWAP1 PUSH2 0x76C SWAP1 DUP5 SWAP1 PUSH2 0xEBC JUMP JUMPDEST SWAP1 SWAP2 SSTORE POP POP CALLER PUSH1 0x0 SWAP1 DUP2 MSTORE PUSH1 0x3 PUSH1 0x20 MSTORE PUSH1 0x40 SWAP1 KECCAK256 SLOAD PUSH2 0x78E JUMPI PUSH2 0x78E CALLER PUSH2 0xBA8 JUMP JUMPDEST POP POP JUMP JUMPDEST PUSH1 0x1 PUSH1 0x1 PUSH1 0xA0 SHL SUB DUP1 DUP3 AND PUSH1 0x0 SWAP1 DUP2 MSTORE PUSH1 0x4 PUSH1 0x20 SWAP1 DUP2 MSTORE PUSH1 0x40 DUP1 DUP4 KECCAK256 SWAP4 DUP7 AND DUP4 MSTORE SWAP3 SWAP1 MSTORE SWAP1 DUP2 KECCAK256 SLOAD DUP2 DUP1 PUSH2 0x7C5 DUP6 PUSH2 0x2F8 JUMP JUMPDEST SWAP1 SWAP3 POP SWAP1 POP PUSH2 0x7D5 DUP2 PUSH1 0xA PUSH2 0xFB7 JUMP JUMPDEST PUSH2 0x7DF DUP4 DUP6 PUSH2 0xFC3 JUMP JUMPDEST PUSH2 0x7E9 SWAP2 SWAP1 PUSH2 0xFE2 JUMP JUMPDEST SWAP4 POP POP POP POP JUMPDEST SWAP3 SWAP2 POP POP JUMP JUMPDEST PUSH1 0x1 DUP2 DUP2 SLOAD DUP2 LT PUSH2 0x805 JUMPI PUSH1 0x0 DUP1 REVERT JUMPDEST PUSH1 0x0 SWAP2 DUP3 MSTORE PUSH1 0x20 SWAP1 SWAP2 KECCAK256 ADD SLOAD PUSH1 0x1 PUSH1 0x1 PUSH1 0xA0 SHL SUB AND SWAP1 POP DUP2 JUMP JUMPDEST PUSH1 0x0 SLOAD PUSH1 0x1 PUSH1 0x1 PUSH1 0xA0 SHL SUB AND CALLER EQ PUSH2 0x849 JUMPI PUSH1 0x40 MLOAD PUSH3 0x461BCD PUSH1 0xE5 SHL DUP2 MSTORE PUSH1 0x4 ADD PUSH2 0x445 SWAP1 PUSH2 0xE87 JUMP JUMPDEST PUSH1 0x0 JUMPDEST PUSH1 0x2 SLOAD DUP2 LT ISZERO PUSH2 0x920 JUMPI PUSH1 0x0 PUSH1 0x2 DUP3 DUP2 SLOAD DUP2 LT PUSH2 0x86B JUMPI PUSH2 0x86B PUSH2 0x1004 JUMP JUMPDEST PUSH1 0x0 SWAP2 DUP3 MSTORE PUSH1 0x20 DUP3 KECCAK256 ADD SLOAD PUSH1 0x1 PUSH1 0x1 PUSH1 0xA0 SHL SUB AND SWAP2 POP PUSH2 0x88A DUP3 PUSH2 0x9B1 JUMP JUMPDEST SWAP1 POP DUP1 ISZERO PUSH2 0x90B JUMPI PUSH1 0x6 SLOAD PUSH1 0x40 MLOAD PUSH4 0xA9059CBB PUSH1 0xE0 SHL DUP2 MSTORE PUSH1 0x1 PUSH1 0x1 PUSH1 0xA0 SHL SUB DUP5 DUP2 AND PUSH1 0x4 DUP4 ADD MSTORE PUSH1 0x24 DUP3 ADD DUP5 SWAP1 MSTORE SWAP1 SWAP2 AND SWAP1 PUSH4 0xA9059CBB SWAP1 PUSH1 0x44 ADD PUSH1 0x20 PUSH1 0x40 MLOAD DUP1 DUP4 SUB DUP2 PUSH1 0x0 DUP8 GAS CALL ISZERO DUP1 ISZERO PUSH2 0x8E5 JUMPI RETURNDATASIZE PUSH1 0x0 DUP1 RETURNDATACOPY RETURNDATASIZE PUSH1 0x0 REVERT JUMPDEST POP POP POP POP PUSH1 0x40 MLOAD RETURNDATASIZE PUSH1 0x1F NOT PUSH1 0x1F DUP3 ADD AND DUP3 ADD DUP1 PUSH1 0x40 MSTORE POP DUP2 ADD SWAP1 PUSH2 0x909 SWAP2 SWAP1 PUSH2 0xE37 JUMP JUMPDEST POP JUMPDEST POP POP DUP1 DUP1 PUSH2 0x918 SWAP1 PUSH2 0x101A JUMP JUMPDEST SWAP2 POP POP PUSH2 0x84C JUMP JUMPDEST POP JUMP JUMPDEST PUSH1 0x0 SLOAD PUSH1 0x1 PUSH1 0x1 PUSH1 0xA0 SHL SUB AND CALLER EQ PUSH2 0x94D JUMPI PUSH1 0x40 MLOAD PUSH3 0x461BCD PUSH1 0xE5 SHL DUP2 MSTORE PUSH1 0x4 ADD PUSH2 0x445 SWAP1 PUSH2 0xE87 JUMP JUMPDEST PUSH2 0x957 PUSH1 0x0 PUSH2 0xCAD JUMP JUMPDEST JUMP JUMPDEST PUSH1 0x0 SLOAD PUSH1 0x1 PUSH1 0x1 PUSH1 0xA0 SHL SUB AND CALLER EQ PUSH2 0x983 JUMPI PUSH1 0x40 MLOAD PUSH3 0x461BCD PUSH1 0xE5 SHL DUP2 MSTORE PUSH1 0x4 ADD PUSH2 0x445 SWAP1 PUSH2 0xE87 JUMP JUMPDEST PUSH1 0x1 PUSH1 0x1 PUSH1 0xA0 SHL SUB SWAP2 DUP3 AND PUSH1 0x0 SWAP1 DUP2 MSTORE PUSH1 0x5 PUSH1 0x20 MSTORE PUSH1 0x40 SWAP1 KECCAK256 DUP1 SLOAD PUSH1 0x1 PUSH1 0x1 PUSH1 0xA0 SHL SUB NOT AND SWAP2 SWAP1 SWAP3 AND OR SWAP1 SSTORE JUMP JUMPDEST PUSH1 0x1 PUSH1 0x1 PUSH1 0xA0 SHL SUB DUP2 AND PUSH1 0x0 SWAP1 DUP2 MSTORE PUSH1 0x3 PUSH1 0x20 MSTORE PUSH1 0x40 DUP2 KECCAK256 SLOAD PUSH2 0x9D6 JUMPI POP PUSH1 0x0 SWAP2 SWAP1 POP JUMP JUMPDEST PUSH1 0x0 DUP1 JUMPDEST PUSH1 0x1 SLOAD DUP2 LT ISZERO PUSH2 0xA33 JUMPI PUSH2 0xA15 DUP5 PUSH1 0x1 DUP4 DUP2 SLOAD DUP2 LT PUSH2 0x9FB JUMPI PUSH2 0x9FB PUSH2 0x1004 JUMP JUMPDEST PUSH1 0x0 SWAP2 DUP3 MSTORE PUSH1 0x20 SWAP1 SWAP2 KECCAK256 ADD SLOAD PUSH1 0x1 PUSH1 0x1 PUSH1 0xA0 SHL SUB AND PUSH2 0x792 JUMP JUMPDEST PUSH2 0xA1F SWAP1 DUP4 PUSH2 0xE6F JUMP JUMPDEST SWAP2 POP DUP1 PUSH2 0xA2B DUP2 PUSH2 0x101A JUMP JUMPDEST SWAP2 POP POP PUSH2 0x9DA JUMP JUMPDEST POP SWAP3 SWAP2 POP POP JUMP JUMPDEST PUSH1 0x0 DUP1 JUMPDEST PUSH1 0x1 SLOAD DUP2 LT ISZERO PUSH2 0xA9B JUMPI DUP3 PUSH1 0x1 PUSH1 0x1 PUSH1 0xA0 SHL SUB AND PUSH1 0x1 DUP3 DUP2 SLOAD DUP2 LT PUSH2 0xA65 JUMPI PUSH2 0xA65 PUSH2 0x1004 JUMP JUMPDEST PUSH1 0x0 SWAP2 DUP3 MSTORE PUSH1 0x20 SWAP1 SWAP2 KECCAK256 ADD SLOAD PUSH1 0x1 PUSH1 0x1 PUSH1 0xA0 SHL SUB AND EQ ISZERO PUSH2 0xA89 JUMPI POP PUSH1 0x1 SWAP3 SWAP2 POP POP JUMP JUMPDEST DUP1 PUSH2 0xA93 DUP2 PUSH2 0x101A JUMP JUMPDEST SWAP2 POP POP PUSH2 0xA3E JUMP JUMPDEST POP PUSH1 0x0 SWAP3 SWAP2 POP POP JUMP JUMPDEST PUSH1 0x0 SLOAD PUSH1 0x1 PUSH1 0x1 PUSH1 0xA0 SHL SUB AND CALLER EQ PUSH2 0xACE JUMPI PUSH1 0x40 MLOAD PUSH3 0x461BCD PUSH1 0xE5 SHL DUP2 MSTORE PUSH1 0x4 ADD PUSH2 0x445 SWAP1 PUSH2 0xE87 JUMP JUMPDEST PUSH1 0x1 PUSH1 0x1 PUSH1 0xA0 SHL SUB DUP2 AND PUSH2 0xB33 JUMPI PUSH1 0x40 MLOAD PUSH3 0x461BCD PUSH1 0xE5 SHL DUP2 MSTORE PUSH1 0x20 PUSH1 0x4 DUP3 ADD MSTORE PUSH1 0x26 PUSH1 0x24 DUP3 ADD MSTORE PUSH32 0x4F776E61626C653A206E6577206F776E657220697320746865207A65726F2061 PUSH1 0x44 DUP3 ADD MSTORE PUSH6 0x646472657373 PUSH1 0xD0 SHL PUSH1 0x64 DUP3 ADD MSTORE PUSH1 0x84 ADD PUSH2 0x445 JUMP JUMPDEST PUSH2 0x920 DUP2 PUSH2 0xCAD JUMP JUMPDEST PUSH1 0x2 DUP2 DUP2 SLOAD DUP2 LT PUSH2 0x805 JUMPI PUSH1 0x0 DUP1 REVERT JUMPDEST PUSH1 0x1 PUSH1 0x1 PUSH1 0xA0 SHL SUB DUP1 DUP3 AND PUSH1 0x0 SWAP1 DUP2 MSTORE PUSH1 0x4 PUSH1 0x20 SWAP1 DUP2 MSTORE PUSH1 0x40 DUP1 DUP4 KECCAK256 SWAP4 DUP7 AND DUP4 MSTORE SWAP3 SWAP1 MSTORE KECCAK256 SLOAD PUSH2 0x78E JUMPI PUSH1 0x1 PUSH1 0x1 PUSH1 0xA0 SHL SUB DUP3 AND PUSH1 0x0 SWAP1 DUP2 MSTORE PUSH1 0x3 PUSH1 0x20 MSTORE PUSH1 0x40 DUP2 KECCAK256 DUP1 SLOAD PUSH1 0x1 SWAP3 SWAP1 PUSH2 0xB9F SWAP1 DUP5 SWAP1 PUSH2 0xE6F JUMP JUMPDEST SWAP1 SWAP2 SSTORE POP POP POP POP JUMP JUMPDEST PUSH1 0x0 JUMPDEST PUSH1 0x2 SLOAD DUP2 LT ISZERO PUSH2 0x78E JUMPI DUP2 PUSH1 0x1 PUSH1 0x1 PUSH1 0xA0 SHL SUB AND PUSH1 0x2 DUP3 DUP2 SLOAD DUP2 LT PUSH2 0xBD2 JUMPI PUSH2 0xBD2 PUSH2 0x1004 JUMP JUMPDEST PUSH1 0x0 SWAP2 DUP3 MSTORE PUSH1 0x20 SWAP1 SWAP2 KECCAK256 ADD SLOAD PUSH1 0x1 PUSH1 0x1 PUSH1 0xA0 SHL SUB AND EQ ISZERO PUSH2 0xC9B JUMPI PUSH1 0x2 DUP1 SLOAD PUSH2 0xBFD SWAP1 PUSH1 0x1 SWAP1 PUSH2 0xEBC JUMP JUMPDEST DUP2 SLOAD DUP2 LT PUSH2 0xC0D JUMPI PUSH2 0xC0D PUSH2 0x1004 JUMP JUMPDEST PUSH1 0x0 SWAP2 DUP3 MSTORE PUSH1 0x20 SWAP1 SWAP2 KECCAK256 ADD SLOAD PUSH1 0x2 DUP1 SLOAD PUSH1 0x1 PUSH1 0x1 PUSH1 0xA0 SHL SUB SWAP1 SWAP3 AND SWAP2 DUP4 SWAP1 DUP2 LT PUSH2 0xC39 JUMPI PUSH2 0xC39 PUSH2 0x1004 JUMP JUMPDEST SWAP1 PUSH1 0x0 MSTORE PUSH1 0x20 PUSH1 0x0 KECCAK256 ADD PUSH1 0x0 PUSH2 0x100 EXP DUP2 SLOAD DUP2 PUSH1 0x1 PUSH1 0x1 PUSH1 0xA0 SHL SUB MUL NOT AND SWAP1 DUP4 PUSH1 0x1 PUSH1 0x1 PUSH1 0xA0 SHL SUB AND MUL OR SWAP1 SSTORE POP PUSH1 0x2 DUP1 SLOAD DUP1 PUSH2 0xC78 JUMPI PUSH2 0xC78 PUSH2 0x1035 JUMP JUMPDEST PUSH1 0x0 DUP3 DUP2 MSTORE PUSH1 0x20 SWAP1 KECCAK256 DUP2 ADD PUSH1 0x0 NOT SWAP1 DUP2 ADD DUP1 SLOAD PUSH1 0x1 PUSH1 0x1 PUSH1 0xA0 SHL SUB NOT AND SWAP1 SSTORE ADD SWAP1 SSTORE JUMPDEST DUP1 PUSH2 0xCA5 DUP2 PUSH2 0x101A JUMP JUMPDEST SWAP2 POP POP PUSH2 0xBAB JUMP JUMPDEST PUSH1 0x0 DUP1 SLOAD PUSH1 0x1 PUSH1 0x1 PUSH1 0xA0 SHL SUB DUP4 DUP2 AND PUSH1 0x1 PUSH1 0x1 PUSH1 0xA0 SHL SUB NOT DUP4 AND DUP2 OR DUP5 SSTORE PUSH1 0x40 MLOAD SWAP2 SWAP1 SWAP3 AND SWAP3 DUP4 SWAP2 PUSH32 0x8BE0079C531659141344CD1FD0A4F28419497F9722A3DAAFE3B4186F6B6457E0 SWAP2 SWAP1 LOG3 POP POP JUMP JUMPDEST DUP1 CALLDATALOAD PUSH1 0x1 PUSH1 0x1 PUSH1 0xA0 SHL SUB DUP2 AND DUP2 EQ PUSH2 0xD14 JUMPI PUSH1 0x0 DUP1 REVERT JUMPDEST SWAP2 SWAP1 POP JUMP JUMPDEST PUSH1 0x0 PUSH1 0x20 DUP3 DUP5 SUB SLT ISZERO PUSH2 0xD2B JUMPI PUSH1 0x0 DUP1 REVERT JUMPDEST PUSH2 0xD34 DUP3 PUSH2 0xCFD JUMP JUMPDEST SWAP4 SWAP3 POP POP POP JUMP JUMPDEST PUSH1 0x0 DUP1 PUSH1 0x40 DUP4 DUP6 SUB SLT ISZERO PUSH2 0xD4E JUMPI PUSH1 0x0 DUP1 REVERT JUMPDEST DUP3 CALLDATALOAD SWAP2 POP PUSH2 0xD5E PUSH1 0x20 DUP5 ADD PUSH2 0xCFD JUMP JUMPDEST SWAP1 POP SWAP3 POP SWAP3 SWAP1 POP JUMP JUMPDEST PUSH1 0x0 DUP1 PUSH1 0x40 DUP4 DUP6 SUB SLT ISZERO PUSH2 0xD7A JUMPI PUSH1 0x0 DUP1 REVERT JUMPDEST PUSH2 0xD83 DUP4 PUSH2 0xCFD JUMP JUMPDEST SWAP2 POP PUSH2 0xD5E PUSH1 0x20 DUP5 ADD PUSH2 0xCFD JUMP JUMPDEST PUSH1 0x0 PUSH1 0x20 DUP3 DUP5 SUB SLT ISZERO PUSH2 0xDA3 JUMPI PUSH1 0x0 DUP1 REVERT JUMPDEST POP CALLDATALOAD SWAP2 SWAP1 POP JUMP JUMPDEST DUP1 MLOAD PUSH10 0xFFFFFFFFFFFFFFFFFFFF DUP2 AND DUP2 EQ PUSH2 0xD14 JUMPI PUSH1 0x0 DUP1 REVERT JUMPDEST PUSH1 0x0 DUP1 PUSH1 0x0 DUP1 PUSH1 0x0 PUSH1 0xA0 DUP7 DUP9 SUB SLT ISZERO PUSH2 0xDDC JUMPI PUSH1 0x0 DUP1 REVERT JUMPDEST PUSH2 0xDE5 DUP7 PUSH2 0xDAA JUMP JUMPDEST SWAP5 POP PUSH1 0x20 DUP7 ADD MLOAD SWAP4 POP PUSH1 0x40 DUP7 ADD MLOAD SWAP3 POP PUSH1 0x60 DUP7 ADD MLOAD SWAP2 POP PUSH2 0xE08 PUSH1 0x80 DUP8 ADD PUSH2 0xDAA JUMP JUMPDEST SWAP1 POP SWAP3 SWAP6 POP SWAP3 SWAP6 SWAP1 SWAP4 POP JUMP JUMPDEST PUSH1 0x0 PUSH1 0x20 DUP3 DUP5 SUB SLT ISZERO PUSH2 0xE26 JUMPI PUSH1 0x0 DUP1 REVERT JUMPDEST DUP2 MLOAD PUSH1 0xFF DUP2 AND DUP2 EQ PUSH2 0xD34 JUMPI PUSH1 0x0 DUP1 REVERT JUMPDEST PUSH1 0x0 PUSH1 0x20 DUP3 DUP5 SUB SLT ISZERO PUSH2 0xE49 JUMPI PUSH1 0x0 DUP1 REVERT JUMPDEST DUP2 MLOAD DUP1 ISZERO ISZERO DUP2 EQ PUSH2 0xD34 JUMPI PUSH1 0x0 DUP1 REVERT JUMPDEST PUSH4 0x4E487B71 PUSH1 0xE0 SHL PUSH1 0x0 MSTORE PUSH1 0x11 PUSH1 0x4 MSTORE PUSH1 0x24 PUSH1 0x0 REVERT JUMPDEST PUSH1 0x0 DUP3 NOT DUP3 GT ISZERO PUSH2 0xE82 JUMPI PUSH2 0xE82 PUSH2 0xE59 JUMP JUMPDEST POP ADD SWAP1 JUMP JUMPDEST PUSH1 0x20 DUP1 DUP3 MSTORE DUP2 DUP2 ADD MSTORE PUSH32 0x4F776E61626C653A2063616C6C6572206973206E6F7420746865206F776E6572 PUSH1 0x40 DUP3 ADD MSTORE PUSH1 0x60 ADD SWAP1 JUMP JUMPDEST PUSH1 0x0 DUP3 DUP3 LT ISZERO PUSH2 0xECE JUMPI PUSH2 0xECE PUSH2 0xE59 JUMP JUMPDEST POP SUB SWAP1 JUMP JUMPDEST PUSH1 0x1 DUP2 DUP2 JUMPDEST DUP1 DUP6 GT ISZERO PUSH2 0xF0E JUMPI DUP2 PUSH1 0x0 NOT DIV DUP3 GT ISZERO PUSH2 0xEF4 JUMPI PUSH2 0xEF4 PUSH2 0xE59 JUMP JUMPDEST DUP1 DUP6 AND ISZERO PUSH2 0xF01 JUMPI SWAP2 DUP2 MUL SWAP2 JUMPDEST SWAP4 DUP5 SHR SWAP4 SWAP1 DUP1 MUL SWAP1 PUSH2 0xED8 JUMP JUMPDEST POP SWAP3 POP SWAP3 SWAP1 POP JUMP JUMPDEST PUSH1 0x0 DUP3 PUSH2 0xF25 JUMPI POP PUSH1 0x1 PUSH2 0x7EF JUMP JUMPDEST DUP2 PUSH2 0xF32 JUMPI POP PUSH1 0x0 PUSH2 0x7EF JUMP JUMPDEST DUP2 PUSH1 0x1 DUP2 EQ PUSH2 0xF48 JUMPI PUSH1 0x2 DUP2 EQ PUSH2 0xF52 JUMPI PUSH2 0xF6E JUMP JUMPDEST PUSH1 0x1 SWAP2 POP POP PUSH2 0x7EF JUMP JUMPDEST PUSH1 0xFF DUP5 GT ISZERO PUSH2 0xF63 JUMPI PUSH2 0xF63 PUSH2 0xE59 JUMP JUMPDEST POP POP PUSH1 0x1 DUP3 SHL PUSH2 0x7EF JUMP JUMPDEST POP PUSH1 0x20 DUP4 LT PUSH2 0x133 DUP4 LT AND PUSH1 0x4E DUP5 LT PUSH1 0xB DUP5 LT AND OR ISZERO PUSH2 0xF91 JUMPI POP DUP2 DUP2 EXP PUSH2 0x7EF JUMP JUMPDEST PUSH2 0xF9B DUP4 DUP4 PUSH2 0xED3 JUMP JUMPDEST DUP1 PUSH1 0x0 NOT DIV DUP3 GT ISZERO PUSH2 0xFAF JUMPI PUSH2 0xFAF PUSH2 0xE59 JUMP JUMPDEST MUL SWAP4 SWAP3 POP POP POP JUMP JUMPDEST PUSH1 0x0 PUSH2 0xD34 DUP4 DUP4 PUSH2 0xF16 JUMP JUMPDEST PUSH1 0x0 DUP2 PUSH1 0x0 NOT DIV DUP4 GT DUP3 ISZERO ISZERO AND ISZERO PUSH2 0xFDD JUMPI PUSH2 0xFDD PUSH2 0xE59 JUMP JUMPDEST POP MUL SWAP1 JUMP JUMPDEST PUSH1 0x0 DUP3 PUSH2 0xFFF JUMPI PUSH4 0x4E487B71 PUSH1 0xE0 SHL PUSH1 0x0 MSTORE PUSH1 0x12 PUSH1 0x4 MSTORE PUSH1 0x24 PUSH1 0x0 REVERT JUMPDEST POP DIV SWAP1 JUMP JUMPDEST PUSH4 0x4E487B71 PUSH1 0xE0 SHL PUSH1 0x0 MSTORE PUSH1 0x32 PUSH1 0x4 MSTORE PUSH1 0x24 PUSH1 0x0 REVERT JUMPDEST PUSH1 0x0 PUSH1 0x0 NOT DUP3 EQ ISZERO PUSH2 0x102E JUMPI PUSH2 0x102E PUSH2 0xE59 JUMP JUMPDEST POP PUSH1 0x1 ADD SWAP1 JUMP JUMPDEST PUSH4 0x4E487B71 PUSH1 0xE0 SHL PUSH1 0x0 MSTORE PUSH1 0x31 PUSH1 0x4 MSTORE PUSH1 0x24 PUSH1 0x0 REVERT INVALID LOG2 PUSH5 0x6970667358 0x22 SLT KECCAK256 0xF7 GT 0x4C CALLDATACOPY PUSH23 0x8FCEBECC73AB6A2A24CBC2938626FD886A2265E4EEDE24 LOG4 0xBF 0x1E MOD PUSH5 0x736F6C6343 STOP ADDMOD 0xC STOP CALLER ","sha1":"e203de4b9086a0c54571d2ca9b53b0772ea7f176","source":"// SPDX-License-Identifier: MIT\npragma solidity ^0.8.0;\n\nimport \"@openzeppelin/contracts/access/Ownable.sol\";\nimport \"@openzeppelin/contracts/token/ERC20/IERC20.sol\";\nimport \"@chainlink/contracts/src/v0.8/interfaces/AggregatorV3Interface.sol\";\n\ncontract TokenFarm is Ownable {\n  address[] public allowedTokens;\n  address[] public stakers;\n  mapping(address => uint256) public uniqueTokensStaked;\n  mapping(address => mapping(address => uint256)) public stakingBalance;\n  mapping(address => address) public tokenPriceFeedMapping;\n  IERC20 public rewardToken;\n\n  constructor(address _rewardTokenAddress) public {\n    rewardToken = IERC20(_rewardTokenAddress);\n  }\n\n\n  // Admin functions ---------\n\n  function addAllowedTokens(address _token) external onlyOwner {\n    allowedTokens.push(_token);\n  }\n\n  function issueTokens() external onlyOwner {\n    for (uint256 i = 0; i < stakers.length; i++) {\n      address user = stakers[i];\n      uint256 rewardValue = getTotalUsdStakedValue(user);\n      // Transfer 1 reward token for every USD of staked value\n      if (rewardValue > 0) {\n        rewardToken.transfer(user, rewardValue);\n      }\n    }\n  }\n\n  function setPriceFeedAddress(address _token, address _priceFeed) external onlyOwner {\n    tokenPriceFeedMapping[_token] = _priceFeed;\n  }\n\n  // User functions ---------\n\n  function stakeTokens(uint256 _amount, address _token) external {\n    require(_amount > 0, \"Amount must be more than zero.\");\n    require(tokenIsAllowed(_token), \"Token is not currently allowed.\");\n    IERC20(_token).transferFrom(msg.sender, address(this), _amount);\n    uint256 alreadyStaked = uniqueTokensStaked[msg.sender];\n    updateUniqueTokensStaked(msg.sender, _token);\n    stakingBalance[_token][msg.sender] += _amount;\n    if (alreadyStaked == 0 && uniqueTokensStaked[msg.sender] == 1) {  // First time staking\n      stakers.push(msg.sender);\n    }\n  }\n\n  function unstakeTokens(address _token) external {\n    uint256 balance = stakingBalance[_token][msg.sender];\n    require(balance > 0, \"No tokens to unstake!\");\n    IERC20(_token).transfer(msg.sender, balance);\n    stakingBalance[_token][msg.sender] = 0;\n    uniqueTokensStaked[msg.sender] -= 1;\n    if (uniqueTokensStaked[msg.sender] <= 0) {\n      removeFromStakers(msg.sender);\n    }\n  }\n\n  function tokenIsAllowed(address _token) public view returns (bool) {\n    for(uint256 i=0; i < allowedTokens.length; i++) {\n      if (allowedTokens[i] == _token) {\n        return true;\n      }\n    }\n    return false;\n  }\n\n  function getTotalUsdStakedValue(address _user) public view returns (uint256) {\n    if (uniqueTokensStaked[_user] <= 0) {\n      return 0;\n    }\n    uint256 stakedUsdValue = 0;\n    for (uint256 i; i < allowedTokens.length; i++) {\n      stakedUsdValue += getStakedUsdValue(_user, allowedTokens[i]);\n    }\n    return stakedUsdValue;\n  }\n\n  function getStakedUsdValue(address _user, address _token) public view returns (uint256) {\n    uint256 stakedBalance = stakingBalance[_token][_user];\n    (uint256 price, uint256 decimals) = getTokenUsdPrice(_token);\n    return stakedBalance * price / 10**decimals;\n  }\n\n  function getTokenUsdPrice(address _token) public view returns (uint256, uint256) {\n    address priceFeedAddress = tokenPriceFeedMapping[_token];\n    AggregatorV3Interface priceFeed = AggregatorV3Interface(priceFeedAddress);\n    (, int256 price,,,) = priceFeed.latestRoundData();\n    uint256 decimals = uint256(priceFeed.decimals());\n    return (uint256(price), decimals);\n  }\n\n  function numberOfStakers() public view returns (uint256) {\n    return stakers.length;\n  }\n\n  // Internal functions\n\n  function updateUniqueTokensStaked(address _user, address _token) internal {\n    if (stakingBalance[_token][_user] <= 0) {\n      uniqueTokensStaked[_user] += 1;\n    }\n  }\n\n  function removeFromStakers(address _user) internal {\n    for(uint256 i = 0; i < stakers.length; i++) {\n      if (stakers[i] == _user) {\n        stakers[i] = stakers[stakers.length - 1];\n        stakers.pop();\n      }\n    }\n  }\n}\n","sourcePath":"contracts/TokenFarm.sol","type":"contract","deployment":{"address":"0x602C71e4DAC47a042Ee7f46E0aee17F94A3bA0B6","chainid":"dev","blockHeight":2}}